{
  "_format": "hh3-artifact-1",
  "contractName": "GitHubScorer",
  "sourceName": "contracts/GitHubScorer.sol",
  "abi": [
    {
      "inputs": [],
      "stateMutability": "nonpayable",
      "type": "constructor"
    },
    {
      "anonymous": false,
      "inputs": [
        {
          "indexed": true,
          "internalType": "address",
          "name": "walletAddress",
          "type": "address"
        },
        {
          "indexed": true,
          "internalType": "string",
          "name": "githubUsername",
          "type": "string"
        },
        {
          "indexed": false,
          "internalType": "uint256",
          "name": "score",
          "type": "uint256"
        },
        {
          "indexed": true,
          "internalType": "bytes32",
          "name": "fdcAttestationId",
          "type": "bytes32"
        }
      ],
      "name": "FdcScoreStored",
      "type": "event"
    },
    {
      "anonymous": false,
      "inputs": [
        {
          "indexed": true,
          "internalType": "address",
          "name": "walletAddress",
          "type": "address"
        },
        {
          "indexed": true,
          "internalType": "string",
          "name": "githubUsername",
          "type": "string"
        },
        {
          "indexed": false,
          "internalType": "uint256",
          "name": "score",
          "type": "uint256"
        },
        {
          "indexed": false,
          "internalType": "uint256",
          "name": "timestamp",
          "type": "uint256"
        },
        {
          "indexed": false,
          "internalType": "bool",
          "name": "fdcVerified",
          "type": "bool"
        },
        {
          "indexed": false,
          "internalType": "bytes32",
          "name": "fdcAttestationId",
          "type": "bytes32"
        }
      ],
      "name": "ScoreStored",
      "type": "event"
    },
    {
      "inputs": [
        {
          "internalType": "bytes32",
          "name": "",
          "type": "bytes32"
        }
      ],
      "name": "fdcAttestations",
      "outputs": [
        {
          "internalType": "bool",
          "name": "",
          "type": "bool"
        }
      ],
      "stateMutability": "view",
      "type": "function"
    },
    {
      "inputs": [
        {
          "internalType": "address",
          "name": "walletAddress",
          "type": "address"
        },
        {
          "internalType": "string",
          "name": "githubUsername",
          "type": "string"
        }
      ],
      "name": "getScore",
      "outputs": [
        {
          "internalType": "uint256",
          "name": "score",
          "type": "uint256"
        },
        {
          "internalType": "uint256",
          "name": "timestamp",
          "type": "uint256"
        }
      ],
      "stateMutability": "view",
      "type": "function"
    },
    {
      "inputs": [
        {
          "internalType": "uint256",
          "name": "index",
          "type": "uint256"
        }
      ],
      "name": "getScoreAddress",
      "outputs": [
        {
          "internalType": "address",
          "name": "walletAddress",
          "type": "address"
        }
      ],
      "stateMutability": "view",
      "type": "function"
    },
    {
      "inputs": [],
      "name": "getScoreAddressesCount",
      "outputs": [
        {
          "internalType": "uint256",
          "name": "count",
          "type": "uint256"
        }
      ],
      "stateMutability": "view",
      "type": "function"
    },
    {
      "inputs": [
        {
          "internalType": "address",
          "name": "walletAddress",
          "type": "address"
        }
      ],
      "name": "getUserLatestScore",
      "outputs": [
        {
          "internalType": "string",
          "name": "githubUsername",
          "type": "string"
        },
        {
          "internalType": "uint256",
          "name": "score",
          "type": "uint256"
        },
        {
          "internalType": "uint256",
          "name": "timestamp",
          "type": "uint256"
        }
      ],
      "stateMutability": "view",
      "type": "function"
    },
    {
      "inputs": [
        {
          "internalType": "address",
          "name": "",
          "type": "address"
        }
      ],
      "name": "hasStoredScore",
      "outputs": [
        {
          "internalType": "bool",
          "name": "",
          "type": "bool"
        }
      ],
      "stateMutability": "view",
      "type": "function"
    },
    {
      "inputs": [
        {
          "internalType": "address",
          "name": "walletAddress",
          "type": "address"
        },
        {
          "internalType": "string",
          "name": "githubUsername",
          "type": "string"
        }
      ],
      "name": "isFdcVerified",
      "outputs": [
        {
          "internalType": "bool",
          "name": "verified",
          "type": "bool"
        },
        {
          "internalType": "bytes32",
          "name": "attestationId",
          "type": "bytes32"
        }
      ],
      "stateMutability": "view",
      "type": "function"
    },
    {
      "inputs": [],
      "name": "owner",
      "outputs": [
        {
          "internalType": "address",
          "name": "",
          "type": "address"
        }
      ],
      "stateMutability": "view",
      "type": "function"
    },
    {
      "inputs": [
        {
          "internalType": "uint256",
          "name": "",
          "type": "uint256"
        }
      ],
      "name": "scoreAddresses",
      "outputs": [
        {
          "internalType": "address",
          "name": "",
          "type": "address"
        }
      ],
      "stateMutability": "view",
      "type": "function"
    },
    {
      "inputs": [
        {
          "internalType": "address",
          "name": "walletAddress",
          "type": "address"
        },
        {
          "internalType": "string",
          "name": "githubUsername",
          "type": "string"
        }
      ],
      "name": "scoreExists",
      "outputs": [
        {
          "internalType": "bool",
          "name": "exists",
          "type": "bool"
        }
      ],
      "stateMutability": "view",
      "type": "function"
    },
    {
      "inputs": [
        {
          "internalType": "address",
          "name": "",
          "type": "address"
        },
        {
          "internalType": "string",
          "name": "",
          "type": "string"
        }
      ],
      "name": "scores",
      "outputs": [
        {
          "internalType": "uint256",
          "name": "score",
          "type": "uint256"
        },
        {
          "internalType": "uint256",
          "name": "timestamp",
          "type": "uint256"
        },
        {
          "internalType": "bool",
          "name": "fdcVerified",
          "type": "bool"
        },
        {
          "internalType": "bytes32",
          "name": "fdcAttestationId",
          "type": "bytes32"
        }
      ],
      "stateMutability": "view",
      "type": "function"
    },
    {
      "inputs": [
        {
          "internalType": "address",
          "name": "walletAddress",
          "type": "address"
        },
        {
          "internalType": "string",
          "name": "githubUsername",
          "type": "string"
        },
        {
          "internalType": "uint256",
          "name": "score",
          "type": "uint256"
        },
        {
          "internalType": "uint256",
          "name": "timestamp",
          "type": "uint256"
        },
        {
          "internalType": "bytes32",
          "name": "fdcAttestationId",
          "type": "bytes32"
        }
      ],
      "name": "storeFdcVerifiedScore",
      "outputs": [],
      "stateMutability": "nonpayable",
      "type": "function"
    },
    {
      "inputs": [
        {
          "internalType": "address",
          "name": "walletAddress",
          "type": "address"
        },
        {
          "internalType": "string",
          "name": "githubUsername",
          "type": "string"
        },
        {
          "internalType": "uint256",
          "name": "score",
          "type": "uint256"
        },
        {
          "internalType": "uint256",
          "name": "timestamp",
          "type": "uint256"
        }
      ],
      "name": "storeScore",
      "outputs": [],
      "stateMutability": "nonpayable",
      "type": "function"
    },
    {
      "inputs": [
        {
          "internalType": "address",
          "name": "",
          "type": "address"
        }
      ],
      "name": "userLatestUsername",
      "outputs": [
        {
          "internalType": "string",
          "name": "",
          "type": "string"
        }
      ],
      "stateMutability": "view",
      "type": "function"
    }
  ],
  "bytecode": "0x608060405234801561000f575f80fd5b50600580546001600160a01b031916331790556110ee8061002f5f395ff3fe608060405234801561000f575f80fd5b50600436106100e5575f3560e01c80638da5cb5b11610088578063a8666b9a11610063578063a8666b9a1461027c578063c2c77a101461028f578063c554afcc146102af578063ff72bb5c146102c2575f80fd5b80638da5cb5b146102345780639025fa0814610247578063a1afa01c1461025a575f80fd5b8063666449e2116100c3578063666449e2146101595780636ab0c6931461017b57806378ebd44e146101a65780638069e1561461021f575f80fd5b806311cc7988146100e95780634c5c6799146100ff5780636339e2e614610131575b5f80fd5b6002546040519081526020015b60405180910390f35b61012161010d366004610ce7565b60036020525f908152604090205460ff1681565b60405190151581526020016100f6565b61014461013f366004610da4565b6102ec565b604080519283526020830191909152016100f6565b61016c610167366004610ce7565b610362565b6040516100f693929190610e3c565b61018e610189366004610e60565b6104d5565b6040516001600160a01b0390911681526020016100f6565b6101f96101b4366004610da4565b5f602081815292815260409020815180830184018051928152908401929093019190912091528054600182015460028301546003909301549192909160ff9091169084565b6040805194855260208501939093529015159183019190915260608201526080016100f6565b61023261022d366004610e77565b6104fd565b005b60055461018e906001600160a01b031681565b61018e610255366004610e60565b610738565b610121610268366004610e60565b60046020525f908152604090205460ff1681565b61023261028a366004610ed1565b6107ae565b6102a261029d366004610ce7565b610b79565b6040516100f69190610f35565b6101216102bd366004610da4565b610c10565b6102d56102d0366004610da4565b610c53565b6040805192151583526020830191909152016100f6565b6001600160a01b0382165f90815260208190526040808220905182918291610315908690610f47565b908152604080516020928190038301812060808201835280548083526001820154948301859052600282015460ff1615159383019390935260030154606090910152969095509350505050565b6001600160a01b0381165f908152600160205260408120805460609291829182919061038d90610f62565b80601f01602080910402602001604051908101604052809291908181526020018280546103b990610f62565b80156104045780601f106103db57610100808354040283529160200191610404565b820191905f5260205f20905b8154815290600101906020018083116103e757829003601f168201915b505050505090505f8151116104605760405162461bcd60e51b815260206004820152601e60248201527f4e6f2073636f726520666f756e6420666f7220746869732077616c6c6574000060448201526064015b60405180910390fd5b6001600160a01b0385165f908152602081905260408082209051610485908490610f47565b908152604080516020928190038301812060808201835280548083526001820154948301859052600282015460ff1615159383019390935260030154606090910152929792965094509092505050565b600281815481106104e4575f80fd5b5f918252602090912001546001600160a01b0316905081565b5f83511161054d5760405162461bcd60e51b815260206004820152601f60248201527f47697448756220757365726e616d652063616e6e6f7420626520656d707479006044820152606401610457565b6103e882111561059f5760405162461bcd60e51b815260206004820181905260248201527f53636f7265206d757374206265206265747765656e203020616e6420313030306044820152606401610457565b6040805160808101825283815260208082018490525f828401819052606083018190526001600160a01b03881681529081905282902091519091906105e5908690610f47565b908152604080516020928190038301902083518155838301516001808301919091558483015160028301805460ff19169115159190911790556060909401516003909101556001600160a01b0387165f9081529290915290206106488482610fe8565b506001600160a01b0384165f9081526003602052604090205460ff166106cb576002805460018082019092557f405787fa12a823e0f2b7631cc41b3ba8828b3321ca811111fa75cd3aa3bb5ace0180546001600160a01b0319166001600160a01b0387169081179091555f908152600360205260409020805460ff191690911790555b826040516106d99190610f47565b60408051918290038220848352602083018490525f8383018190526060840152905190916001600160a01b038716917f14cff765f045b161ea7c4fd678eb73af7b53c92d61edc8b80f852c240c28a02a9181900360800190a350505050565b6002545f9082106107815760405162461bcd60e51b8152602060048201526013602482015272496e646578206f7574206f6620626f756e647360681b6044820152606401610457565b60028281548110610794576107946110a4565b5f918252602090912001546001600160a01b031692915050565b6005546001600160a01b031633146108125760405162461bcd60e51b815260206004820152602160248201527f4f6e6c79206f776e65722063616e2063616c6c20746869732066756e6374696f6044820152603760f91b6064820152608401610457565b5f8451116108625760405162461bcd60e51b815260206004820152601f60248201527f47697448756220757365726e616d652063616e6e6f7420626520656d707479006044820152606401610457565b6103e88311156108b45760405162461bcd60e51b815260206004820181905260248201527f53636f7265206d757374206265206265747765656e203020616e6420313030306044820152606401610457565b8061090b5760405162461bcd60e51b815260206004820152602160248201527f464443206174746573746174696f6e2049442063616e6e6f74206265207a65726044820152606f60f81b6064820152608401610457565b5f8181526004602052604090205460ff16156109695760405162461bcd60e51b815260206004820152601c60248201527f464443206174746573746174696f6e20616c72656164792075736564000000006044820152606401610457565b5f818152600460209081526040808320805460ff19166001908117909155815160808101835287815280840187905280830191909152606081018590526001600160a01b0389168452918390529182902091519091906109ca908790610f47565b908152604080516020928190038301902083518155838301516001808301919091558483015160028301805460ff19169115159190911790556060909401516003909101556001600160a01b0388165f908152929091529020610a2d8582610fe8565b506001600160a01b0385165f9081526003602052604090205460ff16610ab0576002805460018082019092557f405787fa12a823e0f2b7631cc41b3ba8828b3321ca811111fa75cd3aa3bb5ace0180546001600160a01b0319166001600160a01b0388169081179091555f908152600360205260409020805460ff191690911790555b83604051610abe9190610f47565b604080519182900382208583526020830185905260018383015260608301849052905190916001600160a01b038816917f14cff765f045b161ea7c4fd678eb73af7b53c92d61edc8b80f852c240c28a02a9181900360800190a38084604051610b279190610f47565b6040518091039020866001600160a01b03167fc98ee11b4f077e803907cf1537454a148c5c9339d5b3b3603551dc87320aa17e86604051610b6a91815260200190565b60405180910390a45050505050565b60016020525f908152604090208054610b9190610f62565b80601f0160208091040260200160405190810160405280929190818152602001828054610bbd90610f62565b8015610c085780601f10610bdf57610100808354040283529160200191610c08565b820191905f5260205f20905b815481529060010190602001808311610beb57829003601f168201915b505050505081565b6001600160a01b0382165f908152602081905260408082209051829190610c38908590610f47565b90815260200160405180910390206001015411905092915050565b6001600160a01b0382165f90815260208190526040808220905182918291610c7c908690610f47565b90815260408051918290036020908101832060808401835280548452600181015491840191909152600281015460ff16151591830182905260030154606090920182905293509150509250929050565b80356001600160a01b0381168114610ce2575f80fd5b919050565b5f60208284031215610cf7575f80fd5b610d0082610ccc565b9392505050565b634e487b7160e01b5f52604160045260245ffd5b5f82601f830112610d2a575f80fd5b813567ffffffffffffffff80821115610d4557610d45610d07565b604051601f8301601f19908116603f01168101908282118183101715610d6d57610d6d610d07565b81604052838152866020858801011115610d85575f80fd5b836020870160208301375f602085830101528094505050505092915050565b5f8060408385031215610db5575f80fd5b610dbe83610ccc565b9150602083013567ffffffffffffffff811115610dd9575f80fd5b610de585828601610d1b565b9150509250929050565b5f5b83811015610e09578181015183820152602001610df1565b50505f910152565b5f8151808452610e28816020860160208601610def565b601f01601f19169290920160200192915050565b606081525f610e4e6060830186610e11565b60208301949094525060400152919050565b5f60208284031215610e70575f80fd5b5035919050565b5f805f8060808587031215610e8a575f80fd5b610e9385610ccc565b9350602085013567ffffffffffffffff811115610eae575f80fd5b610eba87828801610d1b565b949794965050505060408301359260600135919050565b5f805f805f60a08688031215610ee5575f80fd5b610eee86610ccc565b9450602086013567ffffffffffffffff811115610f09575f80fd5b610f1588828901610d1b565b959895975050505060408401359360608101359360809091013592509050565b602081525f610d006020830184610e11565b5f8251610f58818460208701610def565b9190910192915050565b600181811c90821680610f7657607f821691505b602082108103610f9457634e487b7160e01b5f52602260045260245ffd5b50919050565b601f821115610fe3575f81815260208120601f850160051c81016020861015610fc05750805b601f850160051c820191505b81811015610fdf57828155600101610fcc565b5050505b505050565b815167ffffffffffffffff81111561100257611002610d07565b611016816110108454610f62565b84610f9a565b602080601f831160018114611049575f84156110325750858301515b5f19600386901b1c1916600185901b178555610fdf565b5f85815260208120601f198616915b8281101561107757888601518255948401946001909101908401611058565b508582101561109457878501515f19600388901b60f8161c191681555b5050505050600190811b01905550565b634e487b7160e01b5f52603260045260245ffdfea264697066735822122088007cfefd1ecf1e2e338b2ebfa2a4ffe2bbe4ef04f918c42d9df42194a1775f64736f6c63430008140033",
  "linkReferences": {},
  "deployedLinkReferences": {},
  "immutableReferences": {},
  "inputSourceName": "project/contracts/GitHubScorer.sol",
  "buildInfoId": "solc-0_8_20-54561fb752451ac9d17f792d390b14f58aaa09ad"
}